{
  "_format": "hh3-artifact-1",
  "contractName": "SmartJobsEscrow",
  "sourceName": "contracts/SmartJobsEscrow.sol",
  "abi": [
    {
      "inputs": [
        {
          "internalType": "bytes32",
          "name": "escrowId",
          "type": "bytes32"
        }
      ],
      "name": "EscrowAlreadyExists",
      "type": "error"
    },
    {
      "inputs": [
        {
          "internalType": "bytes32",
          "name": "escrowId",
          "type": "bytes32"
        }
      ],
      "name": "EscrowNotFound",
      "type": "error"
    },
    {
      "inputs": [],
      "name": "InvalidAmount",
      "type": "error"
    },
    {
      "inputs": [],
      "name": "InvalidFreelancer",
      "type": "error"
    },
    {
      "inputs": [
        {
          "internalType": "enum SmartJobsEscrow.EscrowStatus",
          "name": "currentStatus",
          "type": "uint8"
        }
      ],
      "name": "InvalidStatus",
      "type": "error"
    },
    {
      "inputs": [],
      "name": "TransferFailed",
      "type": "error"
    },
    {
      "inputs": [],
      "name": "Unauthorized",
      "type": "error"
    },
    {
      "anonymous": false,
      "inputs": [
        {
          "indexed": true,
          "internalType": "bytes32",
          "name": "escrowId",
          "type": "bytes32"
        },
        {
          "indexed": false,
          "internalType": "uint256",
          "name": "amount",
          "type": "uint256"
        }
      ],
      "name": "EscrowCancelled",
      "type": "event"
    },
    {
      "anonymous": false,
      "inputs": [
        {
          "indexed": true,
          "internalType": "bytes32",
          "name": "escrowId",
          "type": "bytes32"
        },
        {
          "indexed": false,
          "internalType": "string",
          "name": "jobId",
          "type": "string"
        },
        {
          "indexed": true,
          "internalType": "address",
          "name": "client",
          "type": "address"
        },
        {
          "indexed": false,
          "internalType": "uint256",
          "name": "amount",
          "type": "uint256"
        }
      ],
      "name": "EscrowCreated",
      "type": "event"
    },
    {
      "anonymous": false,
      "inputs": [
        {
          "indexed": true,
          "internalType": "bytes32",
          "name": "escrowId",
          "type": "bytes32"
        },
        {
          "indexed": false,
          "internalType": "string",
          "name": "reason",
          "type": "string"
        }
      ],
      "name": "EscrowDisputed",
      "type": "event"
    },
    {
      "anonymous": false,
      "inputs": [
        {
          "indexed": true,
          "internalType": "bytes32",
          "name": "escrowId",
          "type": "bytes32"
        },
        {
          "indexed": true,
          "internalType": "address",
          "name": "freelancer",
          "type": "address"
        },
        {
          "indexed": false,
          "internalType": "uint256",
          "name": "bidAmount",
          "type": "uint256"
        }
      ],
      "name": "EscrowLocked",
      "type": "event"
    },
    {
      "anonymous": false,
      "inputs": [
        {
          "indexed": true,
          "internalType": "bytes32",
          "name": "escrowId",
          "type": "bytes32"
        },
        {
          "indexed": false,
          "internalType": "uint256",
          "name": "amount",
          "type": "uint256"
        }
      ],
      "name": "EscrowRefunded",
      "type": "event"
    },
    {
      "anonymous": false,
      "inputs": [
        {
          "indexed": true,
          "internalType": "bytes32",
          "name": "escrowId",
          "type": "bytes32"
        },
        {
          "indexed": true,
          "internalType": "address",
          "name": "freelancer",
          "type": "address"
        },
        {
          "indexed": false,
          "internalType": "uint256",
          "name": "paidToFreelancer",
          "type": "uint256"
        },
        {
          "indexed": false,
          "internalType": "uint256",
          "name": "refundedToClient",
          "type": "uint256"
        }
      ],
      "name": "EscrowReleased",
      "type": "event"
    },
    {
      "anonymous": false,
      "inputs": [
        {
          "indexed": true,
          "internalType": "bytes32",
          "name": "escrowId",
          "type": "bytes32"
        }
      ],
      "name": "ReleaseRequested",
      "type": "event"
    },
    {
      "inputs": [
        {
          "internalType": "bytes32",
          "name": "escrowId",
          "type": "bytes32"
        }
      ],
      "name": "cancel",
      "outputs": [],
      "stateMutability": "nonpayable",
      "type": "function"
    },
    {
      "inputs": [
        {
          "internalType": "bytes32",
          "name": "escrowId",
          "type": "bytes32"
        },
        {
          "internalType": "string",
          "name": "jobId",
          "type": "string"
        }
      ],
      "name": "createEscrow",
      "outputs": [],
      "stateMutability": "payable",
      "type": "function"
    },
    {
      "inputs": [
        {
          "internalType": "bytes32",
          "name": "escrowId",
          "type": "bytes32"
        }
      ],
      "name": "getEscrow",
      "outputs": [
        {
          "components": [
            {
              "internalType": "address payable",
              "name": "client",
              "type": "address"
            },
            {
              "internalType": "address payable",
              "name": "freelancer",
              "type": "address"
            },
            {
              "internalType": "uint256",
              "name": "amount",
              "type": "uint256"
            },
            {
              "internalType": "uint256",
              "name": "bidAmount",
              "type": "uint256"
            },
            {
              "internalType": "enum SmartJobsEscrow.EscrowStatus",
              "name": "status",
              "type": "uint8"
            },
            {
              "internalType": "string",
              "name": "jobId",
              "type": "string"
            },
            {
              "internalType": "string",
              "name": "disputeReason",
              "type": "string"
            },
            {
              "internalType": "uint64",
              "name": "createdAt",
              "type": "uint64"
            },
            {
              "internalType": "uint64",
              "name": "updatedAt",
              "type": "uint64"
            }
          ],
          "internalType": "struct SmartJobsEscrow.Escrow",
          "name": "",
          "type": "tuple"
        }
      ],
      "stateMutability": "view",
      "type": "function"
    },
    {
      "inputs": [
        {
          "internalType": "bytes32",
          "name": "escrowId",
          "type": "bytes32"
        },
        {
          "internalType": "address payable",
          "name": "freelancer",
          "type": "address"
        },
        {
          "internalType": "uint256",
          "name": "bidAmount",
          "type": "uint256"
        }
      ],
      "name": "lockEscrow",
      "outputs": [],
      "stateMutability": "nonpayable",
      "type": "function"
    },
    {
      "inputs": [
        {
          "internalType": "bytes32",
          "name": "escrowId",
          "type": "bytes32"
        },
        {
          "internalType": "string",
          "name": "reason",
          "type": "string"
        }
      ],
      "name": "openDispute",
      "outputs": [],
      "stateMutability": "nonpayable",
      "type": "function"
    },
    {
      "inputs": [
        {
          "internalType": "bytes32",
          "name": "escrowId",
          "type": "bytes32"
        }
      ],
      "name": "refund",
      "outputs": [],
      "stateMutability": "nonpayable",
      "type": "function"
    },
    {
      "inputs": [
        {
          "internalType": "bytes32",
          "name": "escrowId",
          "type": "bytes32"
        }
      ],
      "name": "release",
      "outputs": [],
      "stateMutability": "nonpayable",
      "type": "function"
    },
    {
      "inputs": [
        {
          "internalType": "bytes32",
          "name": "escrowId",
          "type": "bytes32"
        }
      ],
      "name": "requestRelease",
      "outputs": [],
      "stateMutability": "nonpayable",
      "type": "function"
    }
  ],
  "bytecode": "0x6080604052348015600e575f5ffd5b506114b68061001c5f395ff3fe608060405260043610610078575f3560e01c806367d42a8b1161004c57806367d42a8b146100ee5780637249fbb61461010d578063c4d252f51461012c578063f023b8111461014b575f5ffd5b80625dd2041461007c57806303e55f1c1461009d5780631da095e4146100bc57806331ea5596146100cf575b5f5ffd5b348015610087575f5ffd5b5061009b610096366004610fe3565b610180565b005b3480156100a8575f5ffd5b5061009b6100b7366004610ffa565b6102bf565b61009b6100ca36600461103a565b610475565b3480156100da575f5ffd5b5061009b6100e936600461103a565b610698565b3480156100f9575f5ffd5b5061009b610108366004610fe3565b610825565b348015610118575f5ffd5b5061009b610127366004610fe3565b6109ea565b348015610137575f5ffd5b5061009b610146366004610fe3565b610bbe565b348015610156575f5ffd5b5061016a610165366004610fe3565b610d11565b6040516101779190611111565b60405180910390f35b805f5f8281526020819052604090206004015460ff1660078111156101a7576101a76110af565b036101cd576040516319c6c68b60e11b8152600481018290526024015b60405180910390fd5b5f8281526020819052604090206001015482906001600160a01b03163314610207576040516282b42960e81b815260040160405180910390fd5b5f8381526020819052604090206002600482015460ff16600781111561022f5761022f6110af565b1461025757600480820154604051633ba7bf8960e11b81526101c49260ff90921691016111e3565b60048101805460ff191660031790556007810180546001600160401b034216600160401b0267ffffffffffffffff60401b1990911617905560405184907fd96eb852308078dc08e3b3eaa7710a35af616fa791517d8d88cd3124c9e33e69905f90a250505050565b825f5f8281526020819052604090206004015460ff1660078111156102e6576102e66110af565b03610307576040516319c6c68b60e11b8152600481018290526024016101c4565b5f8481526020819052604090206001600482015460ff16600781111561032f5761032f6110af565b1461035757600480820154604051633ba7bf8960e11b81526101c49260ff90921691016111e3565b6001600160a01b0384161580610379575080546001600160a01b038581169116145b8061038d57506001600160a01b0384163314155b156103ab57604051633ad7719360e11b815260040160405180910390fd5b8215806103bb5750806002015483115b156103d95760405163162908e360e11b815260040160405180910390fd5b6001810180546001600160a01b0386166001600160a01b031990911681179091556003820184905560048201805460ff191660021790556007820180546001600160401b034216600160401b0267ffffffffffffffff60401b1990911617905560405184815286907f3cd62927396f5b8a8a194f1161c271c5a44959d69d09324f29710c26366c9bb89060200160405180910390a35050505050565b5f8381526020819052604081206004015460ff16600781111561049a5761049a6110af565b146104bb576040516313a4c78f60e21b8152600481018490526024016101c4565b345f036104db5760405163162908e360e11b815260040160405180910390fd5b60408051610120810182523381525f602080830182905234838501526060830191909152600160808301528251601f8501829004820281018201909352838352429260a083019186908690819084018382808284375f92018290525093855250506040805160208181018352848252808601919091526001600160401b03871682860181905260609586015289845283815292819020855181546001600160a01b039182166001600160a01b0319918216178355948701516001808401805492909316919096161790559085015160028201559284015160038401555060808301516004830180549192909160ff1916908360078111156105de576105de6110af565b021790555060a082015160058201906105f79082611288565b5060c0820151600682019061060c9082611288565b5060e082015160079091018054610100909301516001600160401b03908116600160401b026fffffffffffffffffffffffffffffffff19909416921691909117919091179055604051339085907f5fb66f9845fd5881c9bda557ffe2961b33749cd245cca9ce6b2b5824c471ffb89061068a9087908790349061136a565b60405180910390a350505050565b825f5f8281526020819052604090206004015460ff1660078111156106bf576106bf6110af565b036106e0576040516319c6c68b60e11b8152600481018290526024016101c4565b5f84815260208190526040902080546001600160a01b03163314801590610714575060018101546001600160a01b03163314155b15610731576040516282b42960e81b815260040160405180910390fd5b6002600482015460ff16600781111561074c5761074c6110af565b1415801561077357506003600482015460ff166007811115610770576107706110af565b14155b1561079b57600480820154604051633ba7bf8960e11b81526101c49260ff90921691016111e3565b60048101805460ff1916600690811790915581016107ba84868361138d565b5060078101805467ffffffffffffffff60401b1916600160401b426001600160401b03160217905560405185907fb04195b6541d59acb9eaa3230893c01cc5a6a6ed8d8e756d59bb4562e1f59cbc906108169087908790611446565b60405180910390a25050505050565b805f5f8281526020819052604090206004015460ff16600781111561084c5761084c6110af565b0361086d576040516319c6c68b60e11b8152600481018290526024016101c4565b5f8281526020819052604090205482906001600160a01b031633146108a4576040516282b42960e81b815260040160405180910390fd5b5f8381526020819052604090206002600482015460ff1660078111156108cc576108cc6110af565b141580156108f357506003600482015460ff1660078111156108f0576108f06110af565b14155b1561091b57600480820154604051633ba7bf8960e11b81526101c49260ff90921691016111e3565b600381015460028201545f90610932908390611461565b600184015484546004808701805460ff1916909117905560078601805467ffffffffffffffff60401b1916600160401b426001600160401b0316021790559192506001600160a01b03908116911661098a8285610f6e565b821561099a5761099a8184610f6e565b60408051858152602081018590526001600160a01b038416918a917f99450c840c88bca94a656610fcad5090621de4f47589c6d5844c291b64821063910160405180910390a35050505050505050565b805f5f8281526020819052604090206004015460ff166007811115610a1157610a116110af565b03610a32576040516319c6c68b60e11b8152600481018290526024016101c4565b5f8281526020819052604090205482906001600160a01b03163314610a69576040516282b42960e81b815260040160405180910390fd5b5f8381526020819052604090206001600482015460ff166007811115610a9157610a916110af565b14158015610ab857506002600482015460ff166007811115610ab557610ab56110af565b14155b8015610add57506003600482015460ff166007811115610ada57610ada6110af565b14155b8015610b0257506006600482015460ff166007811115610aff57610aff6110af565b14155b15610b2a57600480820154604051633ba7bf8960e11b81526101c49260ff90921691016111e3565b6002810154815460048301805460ff191660051790556007830180546001600160401b034216600160401b0267ffffffffffffffff60401b199091161790556001600160a01b0316610b7c8183610f6e565b857f21cabc2fff910e5afd1e2bcb22ff2b165a41ab0afbaf364f07aaf2f7787fb90883604051610bae91815260200190565b60405180910390a2505050505050565b805f5f8281526020819052604090206004015460ff166007811115610be557610be56110af565b03610c06576040516319c6c68b60e11b8152600481018290526024016101c4565b5f8281526020819052604090205482906001600160a01b03163314610c3d576040516282b42960e81b815260040160405180910390fd5b5f8381526020819052604090206001600482015460ff166007811115610c6557610c656110af565b14610c8d57600480820154604051633ba7bf8960e11b81526101c49260ff90921691016111e3565b60028101548154600483018054600760ff1990911681179091558301805467ffffffffffffffff60401b1916600160401b426001600160401b0316021790556001600160a01b0316610cdf8183610f6e565b857f3734aba9a2e3612587aab64396de321471ca7c2d3df1d513c6bbe38dcaeb1f9583604051610bae91815260200190565b60408051610120810182525f8082526020820181905291810182905260608082018390526080820183905260a0820181905260c082015260e08101829052610100810191909152815f5f8281526020819052604090206004015460ff166007811115610d7f57610d7f6110af565b03610da0576040516319c6c68b60e11b8152600481018290526024016101c4565b5f838152602081815260409182902082516101208101845281546001600160a01b03908116825260018301541692810192909252600281015492820192909252600382015460608201526004820154909190608083019060ff166007811115610e0b57610e0b6110af565b6007811115610e1c57610e1c6110af565b8152602001600582018054610e309061120b565b80601f0160208091040260200160405190810160405280929190818152602001828054610e5c9061120b565b8015610ea75780601f10610e7e57610100808354040283529160200191610ea7565b820191905f5260205f20905b815481529060010190602001808311610e8a57829003601f168201915b50505050508152602001600682018054610ec09061120b565b80601f0160208091040260200160405190810160405280929190818152602001828054610eec9061120b565b8015610f375780601f10610f0e57610100808354040283529160200191610f37565b820191905f5260205f20905b815481529060010190602001808311610f1a57829003601f168201915b5050509183525050600791909101546001600160401b038082166020840152600160401b9091041660409091015291505b50919050565b5f826001600160a01b0316826040515f6040518083038185875af1925050503d805f8114610fb7576040519150601f19603f3d011682016040523d82523d5f602084013e610fbc565b606091505b5050905080610fde576040516312171d8360e31b815260040160405180910390fd5b505050565b5f60208284031215610ff3575f5ffd5b5035919050565b5f5f5f6060848603121561100c575f5ffd5b8335925060208401356001600160a01b0381168114611029575f5ffd5b929592945050506040919091013590565b5f5f5f6040848603121561104c575f5ffd5b8335925060208401356001600160401b03811115611068575f5ffd5b8401601f81018613611078575f5ffd5b80356001600160401b0381111561108d575f5ffd5b86602082840101111561109e575f5ffd5b939660209190910195509293505050565b634e487b7160e01b5f52602160045260245ffd5b600881106110df57634e487b7160e01b5f52602160045260245ffd5b9052565b5f81518084528060208401602086015e5f602082860101526020601f19601f83011685010191505092915050565b6020815261112b6020820183516001600160a01b03169052565b5f602083015161114660408401826001600160a01b03169052565b506040830151606083015260608301516080830152608083015161116d60a08401826110c3565b5060a083015161012060c08401526111896101408401826110e3565b905060c0840151601f198483030160e08501526111a682826110e3565b91505060e08401516111c46101008501826001600160401b03169052565b506101008401516001600160401b038116610120850152509392505050565b602081016111f182846110c3565b92915050565b634e487b7160e01b5f52604160045260245ffd5b600181811c9082168061121f57607f821691505b602082108103610f6857634e487b7160e01b5f52602260045260245ffd5b601f821115610fde57805f5260205f20601f840160051c810160208510156112625750805b601f840160051c820191505b81811015611281575f815560010161126e565b5050505050565b81516001600160401b038111156112a1576112a16111f7565b6112b5816112af845461120b565b8461123d565b6020601f8211600181146112e7575f83156112d05750848201515b5f19600385901b1c1916600184901b178455611281565b5f84815260208120601f198516915b8281101561131657878501518255602094850194600190920191016112f6565b508482101561133357868401515f19600387901b60f8161c191681555b50505050600190811b01905550565b81835281816020850137505f828201602090810191909152601f909101601f19169091010190565b604081525f61137d604083018587611342565b9050826020830152949350505050565b6001600160401b038311156113a4576113a46111f7565b6113b8836113b2835461120b565b8361123d565b5f601f8411600181146113e9575f85156113d25750838201355b5f19600387901b1c1916600186901b178355611281565b5f83815260208120601f198716915b8281101561141857868501358255602094850194600190920191016113f8565b5086821015611434575f1960f88860031b161c19848701351681555b505060018560011b0183555050505050565b602081525f611459602083018486611342565b949350505050565b818103818111156111f157634e487b7160e01b5f52601160045260245ffdfea26469706673582212203721e5e9d2adefa17018d5743f3cce78dbba3e5082b6943701f277be7bdce46664736f6c634300081c0033",
  "linkReferences": {},
  "deployedLinkReferences": {},
  "immutableReferences": {},
  "inputSourceName": "project/contracts/SmartJobsEscrow.sol",
  "buildInfoId": "solc-0_8_28-f6191a1129c467d9646a69e3e58ecbf4e0d20851"
}