{
  "_format": "hh3-artifact-1",
  "contractName": "SmartJobsEscrow",
  "sourceName": "contracts/SmartJobsEscrow.sol",
  "abi": [
    {
      "inputs": [
        {
          "internalType": "bytes32",
          "name": "escrowId",
          "type": "bytes32"
        }
      ],
      "name": "EscrowAlreadyExists",
      "type": "error"
    },
    {
      "inputs": [
        {
          "internalType": "bytes32",
          "name": "escrowId",
          "type": "bytes32"
        }
      ],
      "name": "EscrowNotFound",
      "type": "error"
    },
    {
      "inputs": [],
      "name": "InvalidAmount",
      "type": "error"
    },
    {
      "inputs": [],
      "name": "InvalidFreelancer",
      "type": "error"
    },
    {
      "inputs": [
        {
          "internalType": "enum SmartJobsEscrow.EscrowStatus",
          "name": "currentStatus",
          "type": "uint8"
        }
      ],
      "name": "InvalidStatus",
      "type": "error"
    },
    {
      "inputs": [],
      "name": "TransferFailed",
      "type": "error"
    },
    {
      "inputs": [],
      "name": "Unauthorized",
      "type": "error"
    },
    {
      "anonymous": false,
      "inputs": [
        {
          "indexed": true,
          "internalType": "bytes32",
          "name": "escrowId",
          "type": "bytes32"
        },
        {
          "indexed": false,
          "internalType": "uint256",
          "name": "amount",
          "type": "uint256"
        }
      ],
      "name": "EscrowCancelled",
      "type": "event"
    },
    {
      "anonymous": false,
      "inputs": [
        {
          "indexed": true,
          "internalType": "bytes32",
          "name": "escrowId",
          "type": "bytes32"
        },
        {
          "indexed": false,
          "internalType": "string",
          "name": "jobId",
          "type": "string"
        },
        {
          "indexed": true,
          "internalType": "address",
          "name": "client",
          "type": "address"
        },
        {
          "indexed": false,
          "internalType": "uint256",
          "name": "amount",
          "type": "uint256"
        }
      ],
      "name": "EscrowCreated",
      "type": "event"
    },
    {
      "anonymous": false,
      "inputs": [
        {
          "indexed": true,
          "internalType": "bytes32",
          "name": "escrowId",
          "type": "bytes32"
        },
        {
          "indexed": false,
          "internalType": "string",
          "name": "reason",
          "type": "string"
        }
      ],
      "name": "EscrowDisputed",
      "type": "event"
    },
    {
      "anonymous": false,
      "inputs": [
        {
          "indexed": true,
          "internalType": "bytes32",
          "name": "escrowId",
          "type": "bytes32"
        },
        {
          "indexed": true,
          "internalType": "address",
          "name": "freelancer",
          "type": "address"
        },
        {
          "indexed": false,
          "internalType": "uint256",
          "name": "bidAmount",
          "type": "uint256"
        }
      ],
      "name": "EscrowLocked",
      "type": "event"
    },
    {
      "anonymous": false,
      "inputs": [
        {
          "indexed": true,
          "internalType": "bytes32",
          "name": "escrowId",
          "type": "bytes32"
        },
        {
          "indexed": false,
          "internalType": "uint256",
          "name": "amount",
          "type": "uint256"
        }
      ],
      "name": "EscrowRefunded",
      "type": "event"
    },
    {
      "anonymous": false,
      "inputs": [
        {
          "indexed": true,
          "internalType": "bytes32",
          "name": "escrowId",
          "type": "bytes32"
        },
        {
          "indexed": true,
          "internalType": "address",
          "name": "freelancer",
          "type": "address"
        },
        {
          "indexed": false,
          "internalType": "uint256",
          "name": "paidToFreelancer",
          "type": "uint256"
        },
        {
          "indexed": false,
          "internalType": "uint256",
          "name": "refundedToClient",
          "type": "uint256"
        }
      ],
      "name": "EscrowReleased",
      "type": "event"
    },
    {
      "anonymous": false,
      "inputs": [
        {
          "indexed": true,
          "internalType": "bytes32",
          "name": "escrowId",
          "type": "bytes32"
        }
      ],
      "name": "ReleaseRequested",
      "type": "event"
    },
    {
      "inputs": [
        {
          "internalType": "bytes32",
          "name": "escrowId",
          "type": "bytes32"
        }
      ],
      "name": "cancel",
      "outputs": [],
      "stateMutability": "nonpayable",
      "type": "function"
    },
    {
      "inputs": [
        {
          "internalType": "bytes32",
          "name": "escrowId",
          "type": "bytes32"
        },
        {
          "internalType": "string",
          "name": "jobId",
          "type": "string"
        }
      ],
      "name": "createEscrow",
      "outputs": [],
      "stateMutability": "payable",
      "type": "function"
    },
    {
      "inputs": [
        {
          "internalType": "bytes32",
          "name": "escrowId",
          "type": "bytes32"
        }
      ],
      "name": "getEscrow",
      "outputs": [
        {
          "components": [
            {
              "internalType": "address payable",
              "name": "client",
              "type": "address"
            },
            {
              "internalType": "address payable",
              "name": "freelancer",
              "type": "address"
            },
            {
              "internalType": "uint256",
              "name": "amount",
              "type": "uint256"
            },
            {
              "internalType": "uint256",
              "name": "bidAmount",
              "type": "uint256"
            },
            {
              "internalType": "enum SmartJobsEscrow.EscrowStatus",
              "name": "status",
              "type": "uint8"
            },
            {
              "internalType": "string",
              "name": "jobId",
              "type": "string"
            },
            {
              "internalType": "string",
              "name": "disputeReason",
              "type": "string"
            },
            {
              "internalType": "uint64",
              "name": "createdAt",
              "type": "uint64"
            },
            {
              "internalType": "uint64",
              "name": "updatedAt",
              "type": "uint64"
            }
          ],
          "internalType": "struct SmartJobsEscrow.Escrow",
          "name": "",
          "type": "tuple"
        }
      ],
      "stateMutability": "view",
      "type": "function"
    },
    {
      "inputs": [
        {
          "internalType": "bytes32",
          "name": "escrowId",
          "type": "bytes32"
        },
        {
          "internalType": "address payable",
          "name": "freelancer",
          "type": "address"
        },
        {
          "internalType": "uint256",
          "name": "bidAmount",
          "type": "uint256"
        }
      ],
      "name": "lockEscrow",
      "outputs": [],
      "stateMutability": "nonpayable",
      "type": "function"
    },
    {
      "inputs": [
        {
          "internalType": "bytes32",
          "name": "escrowId",
          "type": "bytes32"
        },
        {
          "internalType": "string",
          "name": "reason",
          "type": "string"
        }
      ],
      "name": "openDispute",
      "outputs": [],
      "stateMutability": "nonpayable",
      "type": "function"
    },
    {
      "inputs": [
        {
          "internalType": "bytes32",
          "name": "escrowId",
          "type": "bytes32"
        }
      ],
      "name": "refund",
      "outputs": [],
      "stateMutability": "nonpayable",
      "type": "function"
    },
    {
      "inputs": [
        {
          "internalType": "bytes32",
          "name": "escrowId",
          "type": "bytes32"
        }
      ],
      "name": "release",
      "outputs": [],
      "stateMutability": "nonpayable",
      "type": "function"
    },
    {
      "inputs": [
        {
          "internalType": "bytes32",
          "name": "escrowId",
          "type": "bytes32"
        }
      ],
      "name": "requestRelease",
      "outputs": [],
      "stateMutability": "nonpayable",
      "type": "function"
    }
  ],
  "bytecode": "0x6080604052348015600e575f5ffd5b506114da8061001c5f395ff3fe608060405260043610610078575f3560e01c806367d42a8b1161004c57806367d42a8b146100ee5780637249fbb61461010d578063c4d252f51461012c578063f023b8111461014b575f5ffd5b80625dd2041461007c57806303e55f1c1461009d5780631da095e4146100bc57806331ea5596146100cf575b5f5ffd5b348015610087575f5ffd5b5061009b610096366004611007565b610180565b005b3480156100a8575f5ffd5b5061009b6100b736600461101e565b6102bf565b61009b6100ca36600461105e565b610499565b3480156100da575f5ffd5b5061009b6100e936600461105e565b6106bc565b3480156100f9575f5ffd5b5061009b610108366004611007565b610849565b348015610118575f5ffd5b5061009b610127366004611007565b610a0e565b348015610137575f5ffd5b5061009b610146366004611007565b610be2565b348015610156575f5ffd5b5061016a610165366004611007565b610d35565b6040516101779190611135565b60405180910390f35b805f5f8281526020819052604090206004015460ff1660078111156101a7576101a76110d3565b036101cd576040516319c6c68b60e11b8152600481018290526024015b60405180910390fd5b5f8281526020819052604090206001015482906001600160a01b03163314610207576040516282b42960e81b815260040160405180910390fd5b5f8381526020819052604090206002600482015460ff16600781111561022f5761022f6110d3565b1461025757600480820154604051633ba7bf8960e11b81526101c49260ff9092169101611207565b60048101805460ff191660031790556007810180546001600160401b034216600160401b0267ffffffffffffffff60401b1990911617905560405184907fd96eb852308078dc08e3b3eaa7710a35af616fa791517d8d88cd3124c9e33e69905f90a250505050565b825f5f8281526020819052604090206004015460ff1660078111156102e6576102e66110d3565b03610307576040516319c6c68b60e11b8152600481018290526024016101c4565b5f8481526020819052604090205484906001600160a01b0316331461033e576040516282b42960e81b815260040160405180910390fd5b5f8581526020819052604090206001600482015460ff166007811115610366576103666110d3565b1461038e57600480820154604051633ba7bf8960e11b81526101c49260ff9092169101611207565b6001600160a01b03851615806103b0575080546001600160a01b038681169116145b156103ce57604051633ad7719360e11b815260040160405180910390fd5b8315806103de5750806002015484115b156103fc5760405163162908e360e11b815260040160405180910390fd5b6001810180546001600160a01b0387166001600160a01b031990911681179091556003820185905560048201805460ff191660021790556007820180546001600160401b034216600160401b0267ffffffffffffffff60401b1990911617905560405185815287907f3cd62927396f5b8a8a194f1161c271c5a44959d69d09324f29710c26366c9bb89060200160405180910390a3505050505050565b5f8381526020819052604081206004015460ff1660078111156104be576104be6110d3565b146104df576040516313a4c78f60e21b8152600481018490526024016101c4565b345f036104ff5760405163162908e360e11b815260040160405180910390fd5b60408051610120810182523381525f602080830182905234838501526060830191909152600160808301528251601f8501829004820281018201909352838352429260a083019186908690819084018382808284375f92018290525093855250506040805160208181018352848252808601919091526001600160401b03871682860181905260609586015289845283815292819020855181546001600160a01b039182166001600160a01b0319918216178355948701516001808401805492909316919096161790559085015160028201559284015160038401555060808301516004830180549192909160ff191690836007811115610602576106026110d3565b021790555060a0820151600582019061061b90826112ac565b5060c0820151600682019061063090826112ac565b5060e082015160079091018054610100909301516001600160401b03908116600160401b026fffffffffffffffffffffffffffffffff19909416921691909117919091179055604051339085907f5fb66f9845fd5881c9bda557ffe2961b33749cd245cca9ce6b2b5824c471ffb8906106ae9087908790349061138e565b60405180910390a350505050565b825f5f8281526020819052604090206004015460ff1660078111156106e3576106e36110d3565b03610704576040516319c6c68b60e11b8152600481018290526024016101c4565b5f84815260208190526040902080546001600160a01b03163314801590610738575060018101546001600160a01b03163314155b15610755576040516282b42960e81b815260040160405180910390fd5b6002600482015460ff166007811115610770576107706110d3565b1415801561079757506003600482015460ff166007811115610794576107946110d3565b14155b156107bf57600480820154604051633ba7bf8960e11b81526101c49260ff9092169101611207565b60048101805460ff1916600690811790915581016107de8486836113b1565b5060078101805467ffffffffffffffff60401b1916600160401b426001600160401b03160217905560405185907fb04195b6541d59acb9eaa3230893c01cc5a6a6ed8d8e756d59bb4562e1f59cbc9061083a908790879061146a565b60405180910390a25050505050565b805f5f8281526020819052604090206004015460ff166007811115610870576108706110d3565b03610891576040516319c6c68b60e11b8152600481018290526024016101c4565b5f8281526020819052604090205482906001600160a01b031633146108c8576040516282b42960e81b815260040160405180910390fd5b5f8381526020819052604090206002600482015460ff1660078111156108f0576108f06110d3565b1415801561091757506003600482015460ff166007811115610914576109146110d3565b14155b1561093f57600480820154604051633ba7bf8960e11b81526101c49260ff9092169101611207565b600381015460028201545f90610956908390611485565b600184015484546004808701805460ff1916909117905560078601805467ffffffffffffffff60401b1916600160401b426001600160401b0316021790559192506001600160a01b0390811691166109ae8285610f92565b82156109be576109be8184610f92565b60408051858152602081018590526001600160a01b038416918a917f99450c840c88bca94a656610fcad5090621de4f47589c6d5844c291b64821063910160405180910390a35050505050505050565b805f5f8281526020819052604090206004015460ff166007811115610a3557610a356110d3565b03610a56576040516319c6c68b60e11b8152600481018290526024016101c4565b5f8281526020819052604090205482906001600160a01b03163314610a8d576040516282b42960e81b815260040160405180910390fd5b5f8381526020819052604090206001600482015460ff166007811115610ab557610ab56110d3565b14158015610adc57506002600482015460ff166007811115610ad957610ad96110d3565b14155b8015610b0157506003600482015460ff166007811115610afe57610afe6110d3565b14155b8015610b2657506006600482015460ff166007811115610b2357610b236110d3565b14155b15610b4e57600480820154604051633ba7bf8960e11b81526101c49260ff9092169101611207565b6002810154815460048301805460ff191660051790556007830180546001600160401b034216600160401b0267ffffffffffffffff60401b199091161790556001600160a01b0316610ba08183610f92565b857f21cabc2fff910e5afd1e2bcb22ff2b165a41ab0afbaf364f07aaf2f7787fb90883604051610bd291815260200190565b60405180910390a2505050505050565b805f5f8281526020819052604090206004015460ff166007811115610c0957610c096110d3565b03610c2a576040516319c6c68b60e11b8152600481018290526024016101c4565b5f8281526020819052604090205482906001600160a01b03163314610c61576040516282b42960e81b815260040160405180910390fd5b5f8381526020819052604090206001600482015460ff166007811115610c8957610c896110d3565b14610cb157600480820154604051633ba7bf8960e11b81526101c49260ff9092169101611207565b60028101548154600483018054600760ff1990911681179091558301805467ffffffffffffffff60401b1916600160401b426001600160401b0316021790556001600160a01b0316610d038183610f92565b857f3734aba9a2e3612587aab64396de321471ca7c2d3df1d513c6bbe38dcaeb1f9583604051610bd291815260200190565b60408051610120810182525f8082526020820181905291810182905260608082018390526080820183905260a0820181905260c082015260e08101829052610100810191909152815f5f8281526020819052604090206004015460ff166007811115610da357610da36110d3565b03610dc4576040516319c6c68b60e11b8152600481018290526024016101c4565b5f838152602081815260409182902082516101208101845281546001600160a01b03908116825260018301541692810192909252600281015492820192909252600382015460608201526004820154909190608083019060ff166007811115610e2f57610e2f6110d3565b6007811115610e4057610e406110d3565b8152602001600582018054610e549061122f565b80601f0160208091040260200160405190810160405280929190818152602001828054610e809061122f565b8015610ecb5780601f10610ea257610100808354040283529160200191610ecb565b820191905f5260205f20905b815481529060010190602001808311610eae57829003601f168201915b50505050508152602001600682018054610ee49061122f565b80601f0160208091040260200160405190810160405280929190818152602001828054610f109061122f565b8015610f5b5780601f10610f3257610100808354040283529160200191610f5b565b820191905f5260205f20905b815481529060010190602001808311610f3e57829003601f168201915b5050509183525050600791909101546001600160401b038082166020840152600160401b9091041660409091015291505b50919050565b5f826001600160a01b0316826040515f6040518083038185875af1925050503d805f8114610fdb576040519150601f19603f3d011682016040523d82523d5f602084013e610fe0565b606091505b5050905080611002576040516312171d8360e31b815260040160405180910390fd5b505050565b5f60208284031215611017575f5ffd5b5035919050565b5f5f5f60608486031215611030575f5ffd5b8335925060208401356001600160a01b038116811461104d575f5ffd5b929592945050506040919091013590565b5f5f5f60408486031215611070575f5ffd5b8335925060208401356001600160401b0381111561108c575f5ffd5b8401601f8101861361109c575f5ffd5b80356001600160401b038111156110b1575f5ffd5b8660208284010111156110c2575f5ffd5b939660209190910195509293505050565b634e487b7160e01b5f52602160045260245ffd5b6008811061110357634e487b7160e01b5f52602160045260245ffd5b9052565b5f81518084528060208401602086015e5f602082860101526020601f19601f83011685010191505092915050565b6020815261114f6020820183516001600160a01b03169052565b5f602083015161116a60408401826001600160a01b03169052565b506040830151606083015260608301516080830152608083015161119160a08401826110e7565b5060a083015161012060c08401526111ad610140840182611107565b905060c0840151601f198483030160e08501526111ca8282611107565b91505060e08401516111e86101008501826001600160401b03169052565b506101008401516001600160401b038116610120850152509392505050565b6020810161121582846110e7565b92915050565b634e487b7160e01b5f52604160045260245ffd5b600181811c9082168061124357607f821691505b602082108103610f8c57634e487b7160e01b5f52602260045260245ffd5b601f82111561100257805f5260205f20601f840160051c810160208510156112865750805b601f840160051c820191505b818110156112a5575f8155600101611292565b5050505050565b81516001600160401b038111156112c5576112c561121b565b6112d9816112d3845461122f565b84611261565b6020601f82116001811461130b575f83156112f45750848201515b5f19600385901b1c1916600184901b1784556112a5565b5f84815260208120601f198516915b8281101561133a578785015182556020948501946001909201910161131a565b508482101561135757868401515f19600387901b60f8161c191681555b50505050600190811b01905550565b81835281816020850137505f828201602090810191909152601f909101601f19169091010190565b604081525f6113a1604083018587611366565b9050826020830152949350505050565b6001600160401b038311156113c8576113c861121b565b6113dc836113d6835461122f565b83611261565b5f601f84116001811461140d575f85156113f65750838201355b5f19600387901b1c1916600186901b1783556112a5565b5f83815260208120601f198716915b8281101561143c578685013582556020948501946001909201910161141c565b5086821015611458575f1960f88860031b161c19848701351681555b505060018560011b0183555050505050565b602081525f61147d602083018486611366565b949350505050565b8181038181111561121557634e487b7160e01b5f52601160045260245ffdfea2646970667358221220b49e6c72c8034a86f9c606a57af16f5db57919609de60e01c739a867ddf1ff0f64736f6c634300081c0033",
  "linkReferences": {},
  "deployedLinkReferences": {},
  "immutableReferences": {},
  "inputSourceName": "project/contracts/SmartJobsEscrow.sol",
  "buildInfoId": "solc-0_8_28-5368578596388d9e16deef27e574e703e1facd84"
}